:020000040800F2
:10000000A010002045010008554900084F010008D4
:10001000574900085B4900085F49000800000000DC
:1000200000000000000000000000000099750008BA
:1000300063490008000000004175000819750008B8
:100040005F0100085F0100085F0100085F01000810
:100050005F0100085F0100085F0100085F01000800
:100060005F0100085F010008654900085F010008A2
:100070005F0100085F0100085F0100085F010008E0
:100080005F0100085F0100085F0100085F010008D0
:100090005F0100085F0100085F0100085F010008C0
:1000A0005F0100085F0100085F0100085F010008B0
:1000B0005F0100085F0100085F0100085F010008A0
:1000C0005F0100085F0100085F0100085F01000890
:1000D0005F010008674900085F0100085F01000830
:1000E0005F0100085F0100085F0100085F01000870
:1000F0005F0100085F0100085F0100085F01000860
:100100005F0100085F0100085F0100085F0100084F
:100110005F0100085F0100085F0100085F0100083F
:100120005F0100085F0100085F0100085F0100082F
:10013000DFF80CD007F08EF900480047D501000821
:10014000A01000200648804706480047FEE7FEE76B
:10015000FEE7FEE7FEE7FEE7FEE7FEE7FEE7FEE777
:10016000976900083101000870471CB51A48002142
:100170004FF480630A46CDE9001018A005F0ADFCED
:10018000184800214FF48073174ACDE9001017A0DA
:1001900005F0A3FC1CBD10B5002007F014FA10BD3B
:1001A00010B504F057FA05F0E9FB05F0DEFB10BDD1
:1001B00005F05CFA05F0A8FBFFF7F2FF07F09CF9E9
:1001C000FFF7D3FF07F091F9FFF7CEFFFFF7E3FF4B
:1001D00000BFFEE7FFF7ECFF074B0008434F4E530D
:1001E0004F4C45002757000880841E004C454400B2
:1001F0002DE9FC410546687F28B907F03DF910B1AB
:100200000020BDE8FC8105F1090006F0F1FD13288E
:1002100001D30020F5E7FE48016800914168019193
:10022000009804F02EFBFB480078FF2809DBF84813
:100230000168009141680191009804F063FB00207F
:10024000DFE7F448866802E040F66C00865905F165
:10025000090106F1090006F0D2FD08B1002EF3D124
:100260004EB1EB480168009141680191009804F09B
:1002700049FB0020C5E74FF4076004F0F1F90400E2
:1002800009D1E3480168009141680191009804F0A8
:1002900039FB0020B5E72868206068686060287A2C
:1002A0002072687A6072A97AA172E97AE172297B78
:1002B0002173697B6173A97BA173E97BE173297C5D
:1002C0002174697C6174A97CA174E97CE174297D45
:1002D0002175697D6175A97DA175E97DE175297E2D
:1002E0002176697E6176A97EA176E97EE176297F15
:1002F0002177687F6077A87FA077286A2062686A84
:100300006062A86AA062E86AE062286B2063686B9A
:100310006063A86BA063E96BE163296C2164696C7D
:100320006164A96CA164E96CE164296D2165696D62
:1003300058206165415B01535A20415B01535C20A9
:10034000415B01535E20415B015395F8601084F8D6
:10035000601095F8611084F8611095F8621084F8C7
:10036000621095F8631084F8631095F8641084F8AF
:10037000641095F8651084F8651095F8661084F897
:10038000661095F8671084F8671095F8681084F87F
:10039000681095F8691084F8691095F86A1084F867
:1003A0006A1095F86B1084F86B1095F86C1084F84F
:1003B0006C1095F86D1084F86D1095F86E1084F837
:1003C0006E1095F86F1084F86F1095F8701084F81F
:1003D000701095F8711084F8711095F8721084F807
:1003E000721095F8731084F8731095F8741084F8EF
:1003F000741095F8751084F8751095F8761084F8D7
:10040000761095F8771084F8771095F8781084F8BE
:10041000781095F8791084F8791095F87A1084F8A6
:100420007A1095F87B1084F87B1095F87C1084F88E
:100430007C1095F87D1084F87D1095F87E1084F876
:100440007E1095F87F1084F87F1095F8801084F85E
:10045000801095F8811084F8811095F8821084F846
:10046000821095F8831084F8831095F8841084F82E
:10047000841095F8851084F8851095F8861084F816
:10048000861095F8871084F8871095F8881084F8FE
:10049000881095F8891084F8891095F88A1084F8E6
:1004A0008A1095F88B1084F88B1095F88C1084F8CE
:1004B0008C1095F88D1084F88D1095F88E1084F8B6
:1004C0008E1095F88F1084F88F1095F8901084F89E
:1004D000901095F8911084F8911095F8921084F886
:1004E000921095F8931084F8931095F8941084F86E
:1004F000941095F8951084F8951095F8961084F856
:10050000961095F8971084F8971095F8981084F83D
:10051000981095F8991084F8991095F89A1084F825
:100520009A1095F89B1084F89B1095F89C1084F80D
:100530009C1095F89D1084F89D1095F89E1084F8F5
:100540009E1095F89F1084F89F1095F8A01084F8DD
:10055000A01095F8A11084F8A11095F8A21084F8C5
:10056000A21095F8A31084F8A31095F8A41084F8AD
:10057000A41095F8A51084F8A51095F8A61084F895
:10058000A61095F8A71084F8A71095F8A81084F87D
:10059000A81095F8A91084F8A91095F8AA1084F865
:1005A000AA1095F8AB1084F8AB1095F8AC1084F84D
:1005B000AC1095F8AD1084F8AD1095F8AE1084F835
:1005C000AE1095F8AF1084F8AF1095F8B01084F81D
:1005D000B01095F8B11084F8B11095F8B21084F805
:1005E000B21095F8B31084F8B31095F8B41084F8ED
:1005F000B41095F8B51084F8B51095F8B61084F8D5
:10060000B61095F8B71084F8B71095F8B81003E055
:10061000000000206000002084F8B81095F8B910A0
:1006200084F8B91095F8BA1084F8BA1095F8BB1090
:1006300084F8BB1095F8BC1084F8BC1095F8BD1078
:1006400084F8BD1095F8BE1084F8BE1095F8BF1060
:1006500084F8BF1095F8C01084F8C01095F8C11048
:1006600084F8C11095F8C21084F8C21095F8C31030
:1006700084F8C31095F8C41084F8C41095F8C51018
:1006800084F8C51095F8C61084F8C61095F8C71000
:1006900084F8C71095F8C81084F8C81095F8C910E8
:1006A00084F8C91095F8CA1084F8CA1095F8CB10D0
:1006B00084F8CB1095F8CC1084F8CC1095F8CD10B8
:1006C00084F8CD1095F8CE1084F8CE1095F8CF10A0
:1006D00084F8CF1095F8D01084F8D01095F8D11088
:1006E00084F8D11095F8D21084F8D21095F8D31070
:1006F00084F8D31095F8D41084F8D41095F8D51058
:1007000084F8D51095F8D61084F8D61095F8D7103F
:1007100084F8D71095F8D81084F8D81095F8D91027
:1007200084F8D91095F8DA1084F8DA1095F8DB100F
:1007300084F8DB1095F8DC1084F8DC1095F8DD10F7
:1007400084F8DD1095F8DE1084F8DE1095F8DF10DF
:1007500084F8DF1095F8E01084F8E01095F8E110C7
:1007600084F8E11095F8E21084F8E21095F8E310AF
:1007700084F8E31095F8E41084F8E41095F8E51097
:1007800084F8E51095F8E61084F8E61095F8E7107F
:1007900084F8E71095F8E81084F8E81095F8E91067
:1007A00084F8E91095F8EA1084F8EA1095F8EB104F
:1007B00084F8EB1095F8EC1084F8EC1095F8ED1037
:1007C00084F8ED1095F8EE1084F8EE1095F8EF101F
:1007D00084F8EF1095F8F01084F8F01095F8F11007
:1007E00084F8F11095F8F21084F8F21095F8F310EF
:1007F00084F8F31095F8F41084F8F41095F8F510D7
:1008000084F8F51095F8F61084F8F61095F8F710BE
:1008100084F8F71095F8F81084F8F81095F8F910A6
:1008200084F8F91095F8FA1084F8FA1095F8FB108E
:1008300084F8FB1095F8FC1084F8FC1095F8FD1076
:1008400084F8FD1095F8FE1084F8FE1095F8FF105E
:1008500084F8FF1095F8001184F8001195F8011143
:1008600084F8011195F8021184F8021195F803112A
:1008700084F8031195F8041184F8041195F8051112
:1008800084F8051195F8061184F8061195F80711FA
:1008900084F8071195F8081184F8081195F80911E2
:1008A00084F8091195F80A1184F80A1195F80B11CA
:1008B00084F80B1195F80C1184F80C1195F80D11B2
:1008C00084F80D1195F80E1184F80E1195F80F119A
:1008D00084F80F1195F8101184F8101195F8111182
:1008E00084F8111195F8121184F8121195F813116A
:1008F00084F8131195F8141184F8141195F8151152
:1009000084F8151195F8161184F8161195F8171139
:1009100084F8171195F8181184F8181195F8191121
:1009200084F8191195F81A1184F81A1195F81B1109
:1009300084F81B1195F81C1184F81C1195F81D11F1
:1009400084F81D1195F81E1184F81E1195F81F11D9
:1009500084F81F1195F8201184F8201195F82111C1
:1009600084F8211195F8221184F8221195F82311A9
:1009700084F8231195F8241184F8241195F8251191
:1009800084F8251195F8261184F8261195F8271179
:1009900084F8271195F8281184F8281195F8291161
:1009A00084F8291195F82A1184F82A1195F82B1149
:1009B00084F82B1195F82C1184F82C1195F82D1131
:1009C00084F82D1195F82E1184F82E1195F82F1119
:1009D00084F82F1195F8301184F8301195F8311101
:1009E00084F8311195F8321184F8321195F83311E9
:1009F00084F8331195F8341184F8341195F83511D1
:100A000084F8351195F8361184F8361195F83711B8
:100A100084F8371195F8381184F8381195F83911A0
:100A200084F8391195F83A1184F83A1195F83B1188
:100A300084F83B1195F83C1184F83C1195F83D1170
:100A400084F83D1195F83E1184F83E1195F83F1158
:100A500084F83F1195F8401184F8401195F8411140
:100A600084F8411195F8421184F8421195F8431128
:100A700084F8431195F8441184F8441195F8451110
:100A800084F8451195F8461184F8461195F84711F8
:100A900084F8471195F8481184F8481195F84911E0
:100AA00084F8491195F84A1184F84A1195F84B11C8
:100AB00084F84B1195F84C1184F84C1195F84D11B0
:100AC00084F84D1195F84E1184F84E1195F84F1198
:100AD00084F84F1195F8501184F8501195F8511180
:100AE00084F8511195F8521184F8521195F8531168
:100AF00084F8531195F8541184F8541195F8551150
:100B000084F8551195F8561184F8561195F8571137
:100B100084F8571195F8581184F8581195F859111F
:100B200084F8591195F85A1184F85A1195F85B1107
:100B300084F85B1195F85C1184F85C1195F85D11EF
:100B400084F85D1195F85E1184F85E1195F85F11D7
:100B500084F85F1195F8601184F8601195F86111BF
:100B600084F8611195F8621184F8621195F86311A7
:100B700084F8631195F8641184F8641195F865118F
:100B800084F8651195F8661184F8661195F8671177
:100B900084F8671195F8681184F8681195F869115F
:100BA00084F8691195F86A1184F86A1195F86B1147
:100BB00084F86B1195F86C1184F86C1195F86D112F
:100BC00084F86D1195F86E1184F86E1195F86F1117
:100BD00084F86F1195F8701184F8701195F87111FF
:100BE00084F8711195F8721184F8721195F87311E7
:100BF00084F8731195F8741184F8741195F87511CF
:100C000084F8751195F8761184F8761195F87711B6
:100C100084F8771195F8781184F8781195F879119E
:100C200084F8791195F87A1184F87A1195F87B1186
:100C300084F87B1195F87C1184F87C1195F87D116E
:100C400084F87D1195F87E1184F87E1195F87F1156
:100C500084F87F1195F8801184F8801195F881113E
:100C600084F8811195F8821184F8821195F8831126
:100C700084F8831195F8841184F8841195F885110E
:100C800084F8851195F8861184F8861195F88711F6
:100C900084F8871195F8881184F8881195F88911DE
:100CA00084F8891195F88A1184F88A1195F88B11C6
:100CB00084F88B1195F88C1184F88C1195F88D11AE
:100CC00084F88D1195F88E1184F88E1195F88F1196
:100CD00084F88F1195F8901184F8901195F891117E
:100CE00084F8911195F8921184F8921195F8931166
:100CF00084F8931195F8941184F8941195F895114E
:100D000084F8951195F8961184F8961195F8971135
:100D100084F8971195F8981184F8981195F899111D
:100D200084F8991195F89A1184F89A1195F89B1105
:100D300084F89B1195F89C1184F89C1195F89D11ED
:100D400084F89D1195F89E1184F89E1195F89F11D5
:100D500084F89F1195F8A01184F8A01195F8A111BD
:100D600084F8A11195F8A21184F8A21195F8A311A5
:100D700084F8A31195F8A41184F8A41195F8A5118D
:100D800084F8A51195F8A61184F8A61195F8A71175
:100D900084F8A71195F8A81184F8A81195F8A9115D
:100DA00084F8A91195F8AA1184F8AA1195F8AB1145
:100DB00084F8AB1195F8AC1184F8AC1195F8AD112D
:100DC00084F8AD1195F8AE1184F8AE1195F8AF1115
:100DD00084F8AF1195F8B01184F8B01195F8B111FD
:100DE00084F8B11195F8B21184F8B21195F8B311E5
:100DF00084F8B31195F8B41184F8B41195F8B511CD
:100E000084F8B51195F8B61184F8B61195F8B711B4
:100E100084F8B71195F8B81184F8B81195F8B9119C
:100E200084F8B91195F8BA1184F8BA1195F8BB1184
:100E300084F8BB1195F8BC1184F8BC1195F8BD116C
:100E400084F8BD1195F8BE1184F8BE1195F8BF1154
:100E500084F8BF1195F8C01184F8C01195F8C1113C
:100E600084F8C11195F8C21184F8C21195F8C31124
:100E700084F8C31195F8C41184F8C41195F8C5110C
:100E800084F8C51195F8C61184F8C61195F8C711F4
:100E900084F8C71195F8C81184F8C81195F8C911DC
:100EA00084F8C91195F8CA1184F8CA1195F8CB11C4
:100EB00084F8CB1195F8CC1184F8CC1195F8CD11AC
:100EC00084F8CD1195F8CE1184F8CE1195F8CF1194
:100ED00084F8CF1195F8D01184F8D01195F8D1117C
:100EE00084F8D11195F8D21184F8D21195F8D31164
:100EF00084F8D31195F8D41184F8D41195F8D5114C
:100F000084F8D51195F8D61184F8D61195F8D71133
:100F100084F8D71195F8D81184F8D81195F8D9111B
:100F200084F8D91195F8DA1184F8DA1195F8DB1103
:100F300084F8DB1195F8DC1184F8DC1195F8DD11EB
:100F400084F8DD1195F8DE1184F8DE1195F8DF11D3
:100F500084F8DF1195F8E01184F8E01195F8E111BB
:100F600084F8E11195F8E21184F8E21195F8E311A3
:100F700084F8E31195F8E41184F8E41195F8E5118B
:100F800084F8E51195F8E61184F8E61195F8E71173
:100F900084F8E71195F8E81184F8E81195F8E9115B
:100FA00084F8E91195F8EA1184F8EA1195F8EB1143
:100FB00084F8EB1195F8EC1184F8EC1195F8ED112B
:100FC00084F8ED1195F8EE1184F8EE1195F8EF1113
:100FD00084F8EF1195F8F01184F8F01195F8F111FB
:100FE00084F8F11195F8F21184F8F21195F8F311E3
:100FF00084F8F31195F8F41184F8F41195F8F511CB
:1010000084F8F51195F8F61184F8F61195F8F711B2
:1010100084F8F71195F8F81184F8F81195F8F9119A
:1010200084F8F91195F8FA1184F8FA1195F8FB1182
:1010300084F8FB1195F8FC1184F8FC1195F8FD116A
:1010400084F8FD1195F8FE1184F8FE1195F8FF1152
:1010500084F8FF1195F8001284F8001295F8011237
:1010600084F8011295F8021284F8021295F803121E
:1010700084F8031295F8041284F8041295F8051206
:1010800084F8051295F8061284F8061295F80712EE
:1010900084F8071295F8081284F8081295F80912D6
:1010A00084F8091295F80A1284F80A1295F80B12BE
:1010B00084F80B1295F80C1284F80C1295F80D12A6
:1010C00084F80D1295F80E1284F80E1295F80F128E
:1010D00084F80F1295F8101284F8101295F8111276
:1010E00084F8111295F8121284F8121295F813125E
:1010F00084F8131295F8141284F8141295F8151246
:1011000084F8151295F8161284F8161295F817122D
:1011100084F8171295F8181284F8181295F8191215
:1011200084F8191295F81A1284F81A1295F81B12FD
:1011300084F81B1295F81C1284F81C1295F81D12E5
:1011400084F81D1295F81E1284F81E1295F81F12CD
:1011500084F81F1295F8201284F8201295F82112B5
:1011600084F8211295F8221284F8221295F823129D
:1011700084F8231295F8241284F8241295F8251285
:1011800084F8251295F8261284F8261295F827126D
:1011900084F8271295F8281284F8281295F8291255
:1011A00084F8291295F82A1284F82A1295F82B123D
:1011B00084F82B1295F82C1284F82C1295F82D1225
:1011C00084F82D1295F82E1284F82E1295F82F120D
:1011D00084F82F1295F8301284F8301295F83112F5
:1011E00084F8311295F8321284F8321295F83312DD
:1011F00084F8331295F8341284F8341295F83512C5
:1012000084F8351295F8361284F8361295F83712AC
:1012100084F8371295F8381284F8381295F8391294
:1012200084F8391295F83A1284F83A1295F83B127C
:1012300084F83B1295F83C1284F83C1295F83D1264
:1012400084F83D1295F83E1284F83E1295F83F124C
:1012500084F83F1295F8401284F8401295F8411234
:1012600084F8411295F8421284F8421295F843121C
:1012700084F8431295F8441284F8441295F8451204
:1012800084F8451295F8461284F8461295F84712EC
:1012900084F8471295F8481284F8481295F84912D4
:1012A00084F8491295F84A1284F84A1295F84B12BC
:1012B00084F84B1295F84C1284F84C1295F84D12A4
:1012C00084F84D1295F84E1284F84E1295F84F128C
:1012D00084F84F1295F8501284F8501295F8511274
:1012E00084F8511295F8521284F8521295F853125C
:1012F00084F8531295F8541284F8541295F8551244
:1013000084F8551295F8561284F8561295F857122B
:1013100084F8571295F8581284F8581295F8591213
:1013200084F8591295F85A1284F85A1295F85B12FB
:1013300084F85B1295F85C1284F85C1295F85D12E3
:1013400084F85D1295F85E1284F85E1295F85F12CB
:1013500084F85F1295F8601284F8601295F86112B3
:1013600084F8611295F8621284F8621295F863129B
:1013700084F8631295F8641284F8641295F8651283
:1013800084F8651295F8661284F8661295F867126B
:1013900084F8671295F8681284F8681295F8691253
:1013A00084F8691295F86A1284F86A1295F86B123B
:1013B00084F86B1295F86C1284F86C1295F86D1223
:1013C00084F86D1295F86E1284F86E1295F86F120B
:1013D00084F86F1295F8701284F8701295F87112F3
:1013E00084F8711295F8721284F8721295F87312DB
:1013F00084F8731295F8741284F8741295F87512C3
:1014000084F8751295F8761284F8761295F87712AA
:1014100084F8771295F8781284F8781295F8791292
:1014200084F8791295F87A1284F87A1295F87B127A
:1014300084F87B1295F87C1284F87C1295F87D1262
:1014400084F87D1295F87E1284F87E1295F87F124A
:1014500084F87F1295F8801284F8801295F8811232
:1014600084F8811295F8821284F8821295F883121A
:1014700084F8831295F8841284F8841295F8851202
:1014800084F8851295F8861284F8861295F88712EA
:1014900084F8871295F8881284F8881295F88912D2
:1014A00084F8891295F88A1284F88A1295F88B12BA
:1014B00084F88B1295F88C1284F88C1295F88D12A2
:1014C00084F88D1295F88E1284F88E1295F88F128A
:1014D00084F88F1295F8901284F8901295F8911272
:1014E00084F8911295F8921284F8921295F893125A
:1014F00084F8931295F8941284F8941295F8951242
:1015000084F8951295F8961284F8961295F8971229
:1015100084F8971295F8981284F8981295F8991211
:1015200084F8991295F89A1284F89A1295F89B12F9
:1015300084F89B1295F89C1284F89C1295F89D12E1
:1015400084F89D1295F89E1284F89E1295F89F12C9
:1015500084F89F1295F8A01284F8A01295F8A112B1
:1015600084F8A11295F8A21284F8A21295F8A31299
:1015700084F8A31295F8A41284F8A41295F8A51281
:1015800084F8A51295F8A61284F8A61295F8A71269
:1015900084F8A71295F8A81284F8A81295F8A91251
:1015A00084F8A91295F8AA1284F8AA1295F8AB1239
:1015B00084F8AB1295F8AC1284F8AC1295F8AD1221
:1015C00084F8AD1295F8AE1284F8AE1295F8AF1209
:1015D00084F8AF1295F8B01284F8B01295F8B112F1
:1015E00084F8B11295F8B21284F8B21295F8B312D9
:1015F00084F8B31295F8B41284F8B41295F8B512C1
:1016000084F8B51295F8B61284F8B61295F8B712A8
:1016100084F8B71295F8B81284F8B81295F8B91290
:1016200084F8B91295F8BA1284F8BA1295F8BB1278
:1016300084F8BB1295F8BC1284F8BC1295F8BD1260
:1016400084F8BD1295F8BE1284F8BE1295F8BF1248
:1016500084F8BF1295F8C01284F8C01295F8C11230
:1016600084F8C11295F8C21284F8C21295F8C31218
:1016700084F8C31295F8C41284F8C41295F8C51200
:1016800084F8C51295F8C61284F8C61295F8C712E8
:1016900084F8C71295F8C81284F8C81295F8C912D0
:1016A00084F8C91295F8CA1284F8CA1295F8CB12B8
:1016B00084F8CB1295F8CC1284F8CC1295F8CD12A0
:1016C00084F8CD1295F8CE1284F8CE1295F8CF1288
:1016D00084F8CF1295F8D01284F8D01295F8D11270
:1016E00084F8D11295F8D21284F8D21295F8D31258
:1016F00084F8D31295F8D41284F8D41295F8D51240
:1017000084F8D51295F8D61284F8D61295F8D71227
:1017100084F8D71295F8D81284F8D81295F8D9120F
:1017200084F8D91295F8DA1284F8DA1295F8DB12F7
:1017300084F8DB1295F8DC1284F8DC1295F8DD12DF
:1017400084F8DD1295F8DE1284F8DE1295F8DF12C7
:1017500084F8DF1295F8E01284F8E01295F8E112AF
:1017600084F8E11295F8E21284F8E21295F8E31297
:1017700084F8E31295F8E41284F8E41295F8E5127F
:1017800084F8E51295F8E61284F8E61295F8E71267
:1017900084F8E71295F8E81284F8E81295F8E9124F
:1017A00084F8E91295F8EA1284F8EA1295F8EB1237
:1017B00084F8EB1295F8EC1284F8EC1295F8ED121F
:1017C00084F8ED1295F8EE1284F8EE1295F8EF1207
:1017D00084F8EF1295F8F01284F8F01295F8F112EF
:1017E00084F8F11295F8F21284F8F21295F8F312D7
:1017F00084F8F31295F8F41284F8F41295F8F512BF
:1018000084F8F51295F8F61284F8F61295F8F712A6
:1018100084F8F71295F8F81284F8F81295F8F9128E
:1018200084F8F91295F8FA1284F8FA1295F8FB1276
:1018300084F8FB1295F8FC1284F8FC1295F8FD125E
:1018400084F8FD1295F8FE1284F8FE1295F8FF1246
:1018500084F8FF1295F8001384F8001395F801132B
:1018600084F8011395F8021384F8021395F8031312
:1018700084F8031395F8041384F8041395F80513FA
:1018800084F8051395F8061384F8061395F80713E2
:1018900084F8071395F8081384F8081395F80913CA
:1018A00084F8091395F80A1384F80A1395F80B13B2
:1018B00084F80B1395F80C1384F80C1395F80D139A
:1018C00084F80D1395F80E1384F80E1395F80F1382
:1018D00084F80F1395F8101384F8101395F811136A
:1018E00084F8111395F8121384F8121395F8131352
:1018F00084F8131395F8141384F8141395F815133A
:1019000084F8151395F8161384F8161395F8171321
:1019100084F8171395F8181384F8181395F8191309
:1019200084F8191395F81A1384F81A1395F81B13F1
:1019300084F81B1395F81C1384F81C1395F81D13D9
:1019400084F81D1395F81E1384F81E1395F81F13C1
:1019500084F81F1395F8201384F8201395F82113A9
:1019600084F8211395F8221384F8221395F8231391
:1019700084F8231395F8241384F8241395F8251379
:1019800084F8251395F8261384F8261395F8271361
:1019900084F8271395F8281384F8281395F8291349
:1019A00084F8291395F82A1384F82A1395F82B1331
:1019B00084F82B1395F82C1384F82C1395F82D1319
:1019C00084F82D1395F82E1384F82E1395F82F1301
:1019D00084F82F1395F8301384F8301395F83113E9
:1019E00084F8311395F8321384F8321395F83313D1
:1019F00084F8331395F8341384F8341395F83513B9
:101A000084F8351395F8361384F8361395F83713A0
:101A100084F8371395F8381384F8381395F8391388
:101A200084F8391395F83A1384F83A1395F83B1370
:101A300084F83B1395F83C1384F83C1395F83D1358
:101A400084F83D1395F83E1384F83E1395F83F1340
:101A500084F83F1395F8401384F8401395F8411328
:101A600084F8411395F8421384F8421395F8431310
:101A700084F8431395F8441384F8441395F84513F8
:101A800084F8451395F8461384F8461395F84713E0
:101A900084F8471395F8481384F8481395F84913C8
:101AA00084F8491395F84A1384F84A1395F84B13B0
:101AB00084F84B1395F84C1384F84C1395F84D1398
:101AC00084F84D1395F84E1384F84E1395F84F1380
:101AD00084F84F1395F8501384F8501395F8511368
:101AE00084F8511395F8521384F8521395F8531350
:101AF00084F8531395F8541384F8541395F8551338
:101B000084F8551395F8561384F8561395F857131F
:101B100084F8571395F8581384F8581395F8591307
:101B200084F8591395F85A1384F85A1395F85B13EF
:101B300084F85B1395F85C1384F85C1395F85D13D7
:101B400084F85D1395F85E1384F85E1395F85F13BF
:101B500084F85F1395F8601384F8601395F86113A7
:101B600084F8611395F8621384F8621395F863138F
:101B700084F8631395F8641384F8641395F8651377
:101B800084F8651395F8661384F8661395F867135F
:101B900084F8671395F8681384F8681395F8691347
:101BA00084F8691395F86A1384F86A1395F86B132F
:101BB00084F86B1395F86C1384F86C1395F86D1317
:101BC00084F86D1395F86E1384F86E1395F86F13FF
:101BD00084F86F1395F8701384F8701395F87113E7
:101BE00084F8711395F8721384F8721395F87313CF
:101BF00084F8731395F8741384F8741395F87513B7
:101C000084F8751395F8761384F8761395F877139E
:101C100084F8771395F8781384F8781395F8791386
:101C200084F8791395F87A1384F87A1395F87B136E
:101C300084F87B1395F87C1384F87C1395F87D1356
:101C400084F87D1395F87E1384F87E1395F87F133E
:101C500084F87F1395F8801384F8801395F8811326
:101C600084F8811395F8821384F8821395F883130E
:101C700084F8831395F8841384F8841395F88513F6
:101C800084F8851395F8861384F8861395F88713DE
:101C900084F8871395F8881384F8881395F88913C6
:101CA00084F8891395F88A1384F88A1395F88B13AE
:101CB00084F88B1395F88C1384F88C1395F88D1396
:101CC00084F88D1395F88E1384F88E1395F88F137E
:101CD00084F88F1395F8901384F8901395F8911366
:101CE00084F8911395F8921384F8921395F893134E
:101CF00084F8931395F8941384F8941395F8951336
:101D000084F8951395F8961384F8961395F897131D
:101D100084F8971395F8981384F8981395F8991305
:101D200084F8991395F89A1384F89A1395F89B13ED
:101D300084F89B1395F89C1384F89C1395F89D13D5
:101D400084F89D1395F89E1384F89E1395F89F13BD
:101D500084F89F1395F8A01384F8A01395F8A113A5
:101D600084F8A11395F8A21384F8A21395F8A3138D
:101D700084F8A31395F8A41384F8A41395F8A51375
:101D800084F8A51395F8A61384F8A61395F8A7135D
:101D900084F8A71395F8A81384F8A81395F8A91345
:101DA00084F8A91395F8AA1384F8AA1395F8AB132D
:101DB00084F8AB1395F8AC1384F8AC1395F8AD1315
:101DC00084F8AD1395F8AE1384F8AE1395F8AF13FD
:101DD00084F8AF1395F8B01384F8B01395F8B113E5
:101DE00084F8B11395F8B21384F8B21395F8B313CD
:101DF00084F8B31395F8B41384F8B41395F8B513B5
:101E000084F8B51395F8B61384F8B61395F8B7139C
:101E100084F8B71395F8B81384F8B81395F8B91384
:101E200084F8B91395F8BA1384F8BA1395F8BB136C
:101E300084F8BB1395F8BC1384F8BC1395F8BD1354
:101E400084F8BD1395F8BE1384F8BE1395F8BF133C
:101E500084F8BF1395F8C01384F8C01395F8C11324
:101E600084F8C11395F8C21384F8C21395F8C3130C
:101E700084F8C31395F8C41384F8C41395F8C513F4
:101E800084F8C51395F8C61384F8C61395F8C713DC
:101E900084F8C71395F8C81384F8C81395F8C913C4
:101EA00084F8C91395F8CA1384F8CA1395F8CB13AC
:101EB00084F8CB1395F8CC1384F8CC1395F8CD1394
:101EC00084F8CD1395F8CE1384F8CE1395F8CF137C
:101ED00084F8CF1395F8D01384F8D01395F8D11364
:101EE00084F8D11395F8D21384F8D21395F8D3134C
:101EF00084F8D31395F8D41384F8D41395F8D51334
:101F000084F8D51395F8D61384F8D61395F8D7131B
:101F100084F8D71395F8D81384F8D81395F8D91303
:101F200084F8D91395F8DA1384F8DA1395F8DB13EB
:101F300084F8DB1395F8DC1384F8DC1395F8DD13D3
:101F400084F8DD1395F8DE1384F8DE1395F8DF13BB
:101F500084F8DF1395F8E01384F8E01395F8E113A3
:101F600084F8E11395F8E21384F8E21395F8E3138B
:101F700084F8E31395F8E41384F8E41395F8E51373
:101F800084F8E51395F8E61384F8E61395F8E7135B
:101F900084F8E71395F8E81384F8E81395F8E91343
:101FA00084F8E91395F8EA1384F8EA1395F8EB132B
:101FB00084F8EB1395F8EC1384F8EC1395F8ED1313
:101FC00084F8ED1395F8EE1384F8EE1395F8EF13FB
:101FD00084F8EF1395F8F01384F8F01395F8F113E3
:101FE00084F8F11395F8F21384F8F21395F8F313CB
:101FF00084F8F31395F8F41384F8F41395F8F513B3
:1020000084F8F51395F8F61384F8F61395F8F7139A
:1020100084F8F71395F8F81384F8F81395F8F91382
:1020200084F8F91395F8FA1384F8FA1395F8FB136A
:1020300084F8FB1395F8FC1384F8FC1395F8FD1352
:1020400084F8FD1395F8FE1384F8FE1395F8FF133A
:1020500084F8FF1395F8001484F8001495F801141F
:1020600084F8011495F8021484F8021495F8031406
:1020700084F8031495F8041484F8041495F80514EE
:1020800084F8051495F8061484F8061495F80714D6
:1020900084F8071495F8081484F8081495F80914BE
:1020A00084F8091495F80A1484F80A1495F80B14A6
:1020B00084F80B1495F80C1484F80C1495F80D148E
:1020C00084F80D1495F80E1484F80E1495F80F1476
:1020D00084F80F1495F8101484F8101495F811145E
:1020E00084F8111495F8121484F8121495F8131446
:1020F00084F8131495F8141484F8141495F815142E
:1021000084F8151495F8161484F8161495F8171415
:1021100084F8171495F8181484F8181495F81914FD
:1021200084F8191495F81A1484F81A1495F81B14E5
:1021300084F81B1495F81C1484F81C1495F81D14CD
:1021400084F81D1495F81E1484F81E1495F81F14B5
:1021500084F81F1495F8201484F8201495F821149D
:1021600084F8211495F8221484F8221495F8231485
:1021700084F8231495F8241484F8241495F825146D
:1021800084F8251495F8261484F8261495F8271455
:1021900084F8271495F8281484F8281495F829143D
:1021A00084F8291495F82A1484F82A1495F82B1425
:1021B00084F82B1495F82C1484F82C1495F82D140D
:1021C00084F82D1495F82E1484F82E1495F82F14F5
:1021D00084F82F1495F8301484F8301495F83114DD
:1021E00084F8311495F8321484F8321495F83314C5
:1021F00084F8331495F8341484F8341495F83514AD
:1022000084F8351495F8361484F8361495F8371494
:1022100084F8371495F8381484F8381495F839147C
:1022200084F8391495F83A1484F83A1495F83B1464
:1022300084F83B1495F83C1484F83C1495F83D144C
:1022400084F83D1495F83E1484F83E1495F83F1434
:1022500084F83F1495F8401484F8401495F841141C
:1022600084F8411495F8421484F8421495F8431404
:1022700084F8431495F8441484F8441495F84514EC
:1022800084F8451495F8461484F8461495F84714D4
:1022900084F8471495F8481484F8481495F84914BC
:1022A00084F8491495F84A1484F84A1495F84B14A4
:1022B00084F84B1495F84C1484F84C1495F84D148C
:1022C00084F84D1495F84E1484F84E1495F84F1474
:1022D00084F84F1495F8501484F8501495F851145C
:1022E00084F8511495F8521484F8521495F8531444
:1022F00084F8531495F8541484F8541495F855142C
:1023000084F8551495F8561484F8561495F8571413
:1023100084F8571495F8581484F8581495F85914FB
:1023200084F8591495F85A1484F85A1495F85B14E3
:1023300084F85B1495F85C1484F85C1495F85D14CB
:1023400084F85D1495F85E1484F85E1495F85F14B3
:1023500084F85F1495F8601484F8601495F861149B
:1023600084F8611495F8621484F8621495F8631483
:1023700084F8631495F8641484F8641495F865146B
:1023800084F8651495F8661484F8661495F8671453
:1023900084F8671495F8681484F8681495F869143B
:1023A00084F8691495F86A1484F86A1495F86B1423
:1023B00084F86B1495F86C1484F86C1495F86D140B
:1023C00084F86D1495F86E1484F86E1495F86F14F3
:1023D00084F86F1495F8701484F8701495F87114DB
:1023E00084F8711495F8721484F8721495F87314C3
:1023F00084F8731495F8741484F8741495F87514AB
:1024000084F8751495F8761484F8761495F8771492
:1024100084F8771495F8781484F8781495F879147A
:1024200084F8791495F87A1484F87A1495F87B1462
:1024300084F87B1495F87C1484F87C1495F87D144A
:1024400084F87D1495F87E1484F87E1495F87F1432
:1024500084F87F1495F8801484F8801495F881141A
:1024600084F8811495F8821484F8821495F8831402
:1024700084F8831495F8841484F8841495F88514EA
:1024800084F8851495F8861484F8861495F88714D2
:1024900084F8871495F8881484F8881495F88914BA
:1024A00084F8891495F88A1484F88A1495F88B14A2
:1024B00084F88B1495F88C1484F88C1495F88D148A
:1024C00084F88D1495F88E1484F88E1495F88F1472
:1024D00084F88F1495F8901484F8901495F891145A
:1024E00084F8911495F8921484F8921495F8931442
:1024F00084F8931495F8941484F8941495F895142A
:1025000084F8951495F8961484F8961495F8971411
:1025100084F8971495F8981484F8981495F89914F9
:1025200084F8991495F89A1484F89A1495F89B14E1
:1025300084F89B1495F89C1484F89C1495F89D14C9
:1025400084F89D1495F89E1484F89E1495F89F14B1
:1025500084F89F1495F8A01484F8A01495F8A11499
:1025600084F8A11495F8A21484F8A21495F8A31481
:1025700084F8A31495F8A41484F8A41495F8A51469
:1025800084F8A51495F8A61484F8A61495F8A71451
:1025900084F8A71495F8A81484F8A81495F8A91439
:1025A00084F8A91495F8AA1484F8AA1495F8AB1421
:1025B00084F8AB1495F8AC1484F8AC1495F8AD1409
:1025C00084F8AD1495F8AE1484F8AE1495F8AF14F1
:1025D00084F8AF1495F8B01484F8B01495F8B114D9
:1025E00084F8B11495F8B21484F8B21495F8B314C1
:1025F00084F8B31495F8B41484F8B41495F8B514A9
:1026000084F8B51495F8B61484F8B61495F8B71490
:1026100084F8B71495F8B81484F8B81495F8B91478
:1026200084F8B91495F8BA1484F8BA1495F8BB1460
:1026300084F8BB1495F8BC1484F8BC1495F8BD1448
:1026400084F8BD1495F8BE1484F8BE1495F8BF1430
:1026500084F8BF1495F8C01484F8C01495F8C11418
:1026600084F8C11495F8C21484F8C21495F8C31400
:1026700084F8C31495F8C41484F8C41495F8C514E8
:1026800084F8C51495F8C61484F8C61495F8C714D0
:1026900084F8C71495F8C81484F8C81495F8C914B8
:1026A00084F8C91495F8CA1484F8CA1495F8CB14A0
:1026B00084F8CB1495F8CC1484F8CC1495F8CD1488
:1026C00084F8CD1495F8CE1484F8CE1495F8CF1470
:1026D00084F8CF1495F8D01484F8D01495F8D11458
:1026E00084F8D11495F8D21484F8D21495F8D31440
:1026F00084F8D31495F8D41484F8D41495F8D51428
:1027000084F8D51495F8D61484F8D61495F8D7140F
:1027100084F8D71495F8D81484F8D81495F8D914F7
:1027200084F8D91495F8DA1484F8DA1495F8DB14DF
:1027300084F8DB1495F8DC1484F8DC1495F8DD14C7
:1027400084F8DD1495F8DE1484F8DE1495F8DF14AF
:1027500084F8DF1495F8E01484F8E01495F8E11497
:1027600084F8E11495F8E21484F8E21495F8E3147F
:1027700084F8E31495F8E41484F8E41495F8E51467
:1027800084F8E51495F8E61484F8E61495F8E7144F
:1027900084F8E71495F8E81484F8E81495F8E91437
:1027A00084F8E91495F8EA1484F8EA1495F8EB141F
:1027B00084F8EB1495F8EC1484F8EC1495F8ED1407
:1027C00084F8ED1495F8EE1484F8EE1495F8EF14EF
:1027D00084F8EF1495F8F01484F8F01495F8F114D7
:1027E00084F8F11495F8F21484F8F21495F8F314BF
:1027F00084F8F31495F8F41484F8F41495F8F514A7
:1028000084F8F51495F8F61484F8F61495F8F7148E
:1028100084F8F71495F8F81484F8F81495F8F91476
:1028200084F8F91495F8FA1484F8FA1495F8FB145E
:1028300084F8FB1495F8FC1484F8FC1495F8FD1446
:1028400084F8FD1495F8FE1484F8FE1495F8FF142E
:1028500084F8FF1495F8001584F8001595F8011513
:1028600084F8011595F8021584F8021595F80315FA
:1028700084F8031595F8041584F8041595F80515E2
:1028800084F8051595F8061584F8061595F80715CA
:1028900084F8071595F8081584F8081595F80915B2
:1028A00084F8091595F80A1584F80A1595F80B159A
:1028B00084F80B1595F80C1584F80C1595F80D1582
:1028C00084F80D1595F80E1584F80E1595F80F156A
:1028D00084F80F1595F8101584F8101595F8111552
:1028E00084F8111595F8121584F8121595F813153A
:1028F00084F8131595F8141584F8141595F8151522
:1029000084F8151595F8161584F8161595F8171509
:1029100084F8171595F8181584F8181595F81915F1
:1029200084F8191595F81A1584F81A1595F81B15D9
:1029300084F81B1595F81C1584F81C1595F81D15C1
:1029400084F81D1595F81E1584F81E1595F81F15A9
:1029500084F81F1595F8201584F8201595F8211591
:1029600084F8211595F8221584F8221595F8231579
:1029700084F8231595F8241584F8241595F8251561
:1029800084F8251595F8261584F8261595F8271549
:1029900084F8271595F8281584F8281595F8291531
:1029A00084F8291595F82A1584F82A1595F82B1519
:1029B00084F82B1595F82C1584F82C1595F82D1501
:1029C00084F82D1595F82E1584F82E1595F82F15E9
:1029D00084F82F1595F8301584F8301595F83115D1
:1029E00084F8311595F8321584F8321595F83315B9
:1029F00084F8331595F8341584F8341595F83515A1
:102A000084F8351595F8361584F8361595F8371588
:102A100084F8371595F8381584F8381595F8391570
:102A200084F8391595F83A1584F83A1595F83B1558
:102A300084F83B1595F83C1584F83C1595F83D1540
:102A400084F83D1595F83E1584F83E1595F83F1528
:102A500084F83F1595F8401584F8401595F8411510
:102A600084F8411595F8421584F8421595F84315F8
:102A700084F8431595F8441584F8441595F84515E0
:102A800084F8451595F8461584F8461595F84715C8
:102A900084F8471595F8481584F8481595F84915B0
:102AA00084F8491595F84A1584F84A1595F84B1598
:102AB00084F84B1595F84C1584F84C1595F84D1580
:102AC00084F84D1595F84E1584F84E1595F84F1568
:102AD00084F84F1595F8501584F8501595F8511550
:102AE00084F8511595F8521584F8521595F8531538
:102AF00084F8531595F8541584F8541595F8551520
:102B000084F8551595F8561584F8561595F8571507
:102B100084F8571595F8581584F8581595F85915EF
:102B200084F8591595F85A1584F85A1595F85B15D7
:102B300084F85B1595F85C1584F85C1595F85D15BF
:102B400084F85D1595F85E1584F85E1595F85F15A7
:102B500084F85F1595F8601584F8601595F861158F
:102B600084F8611595F8621584F8621595F8631577
:102B700084F8631595F8641584F8641595F865155F
:102B800084F8651595F8661584F8661595F8671547
:102B900084F8671595F8681584F8681595F869152F
:102BA00084F8691595F86A1584F86A1595F86B1517
:102BB00084F86B1595F86C1584F86C1595F86D15FF
:102BC00084F86D1595F86E1584F86E1595F86F15E7
:102BD00084F86F1595F8701584F8701595F87115CF
:102BE00084F8711595F8721584F8721595F87315B7
:102BF00084F8731595F8741584F8741595F875159F
:102C000084F8751595F8761584F8761595F8771586
:102C100084F8771595F8781584F8781595F879156E
:102C200084F8791595F87A1584F87A1595F87B1556
:102C300084F87B1595F87C1584F87C1595F87D153E
:102C400084F87D1595F87E1584F87E1595F87F1526
:102C500084F87F1595F8801584F8801595F881150E
:102C600084F8811595F8821584F8821595F88315F6
:102C700084F8831595F8841584F8841595F88515DE
:102C800084F8851595F8861584F8861595F88715C6
:102C900084F8871595F8881584F8881595F88915AE
:102CA00084F8891595F88A1584F88A1595F88B1596
:102CB00084F88B1595F88C1584F88C1595F88D157E
:102CC00084F88D1595F88E1584F88E1595F88F1566
:102CD00084F88F1595F8901584F8901595F891154E
:102CE00084F8911595F8921584F8921595F8931536
:102CF00084F8931595F8941584F8941595F895151E
:102D000084F8951595F8961584F8961595F8971505
:102D100084F8971595F8981584F8981595F89915ED
:102D200084F8991595F89A1584F89A1595F89B15D5
:102D300084F89B1595F89C1584F89C1595F89D15BD
:102D400084F89D1595F89E1584F89E1595F89F15A5
:102D500084F89F1595F8A01584F8A01595F8A1158D
:102D600084F8A11595F8A21584F8A21595F8A31575
:102D700084F8A31595F8A41584F8A41595F8A5155D
:102D800084F8A51595F8A61584F8A61595F8A71545
:102D900084F8A71595F8A81584F8A81595F8A9152D
:102DA00084F8A91595F8AA1584F8AA1595F8AB1515
:102DB00084F8AB1595F8AC1584F8AC1595F8AD15FD
:102DC00084F8AD1595F8AE1584F8AE1595F8AF15E5
:102DD00084F8AF1595F8B01584F8B01595F8B115CD
:102DE00084F8B11595F8B21584F8B21595F8B315B5
:102DF00084F8B31595F8B41584F8B41595F8B5159D
:102E000084F8B51595F8B61584F8B61595F8B71584
:102E100084F8B71595F8B81584F8B81595F8B9156C
:102E200084F8B91595F8BA1584F8BA1595F8BB1554
:102E300084F8BB1595F8BC1584F8BC1595F8BD153C
:102E400084F8BD1595F8BE1584F8BE1595F8BF1524
:102E500084F8BF1595F8C01584F8C01595F8C1150C
:102E600084F8C11595F8C21584F8C21595F8C315F4
:102E700084F8C31595F8C41584F8C41595F8C515DC
:102E800084F8C51595F8C61584F8C61595F8C715C4
:102E900084F8C71595F8C81584F8C81595F8C915AC
:102EA00084F8C91595F8CA1584F8CA1595F8CB1594
:102EB00084F8CB1595F8CC1584F8CC1595F8CD157C
:102EC00084F8CD1595F8CE1584F8CE1595F8CF1564
:102ED00084F8CF1595F8D01584F8D01595F8D1154C
:102EE00084F8D11595F8D21584F8D21595F8D31534
:102EF00084F8D31595F8D41584F8D41595F8D5151C
:102F000084F8D51595F8D61584F8D61595F8D71503
:102F100084F8D71595F8D81584F8D81595F8D915EB
:102F200084F8D91595F8DA1584F8DA1595F8DB15D3
:102F300084F8DB1595F8DC1584F8DC1595F8DD15BB
:102F400084F8DD1595F8DE1584F8DE1595F8DF15A3
:102F500084F8DF1595F8E01584F8E01595F8E1158B
:102F600084F8E11595F8E21584F8E21595F8E31573
:102F700084F8E31595F8E41584F8E41595F8E5155B
:102F800084F8E51595F8E61584F8E61595F8E71543
:102F900084F8E71595F8E81584F8E81595F8E9152B
:102FA00084F8E91595F8EA1584F8EA1595F8EB1513
:102FB00084F8EB1595F8EC1584F8EC1595F8ED15FB
:102FC00084F8ED1595F8EE1584F8EE1595F8EF15E3
:102FD00084F8EF1595F8F01584F8F01595F8F115CB
:102FE00084F8F11595F8F21584F8F21595F8F315B3
:102FF00084F8F31595F8F41584F8F41595F8F5159B
:1030000084F8F51595F8F61584F8F61595F8F71582
:1030100084F8F71595F8F81584F8F81595F8F9156A
:1030200084F8F91595F8FA1584F8FA1595F8FB1552
:1030300084F8FB1595F8FC1584F8FC1595F8FD153A
:1030400084F8FD1595F8FE1584F8FE1595F8FF1522
:1030500084F8FF1595F8001684F8001695F8011607
:1030600084F8011695F8021684F8021695F80316EE
:1030700084F8031695F8041684F8041695F80516D6
:1030800084F8051695F8061684F8061695F80716BE
:1030900084F8071695F8081684F8081695F80916A6
:1030A00084F8091695F80A1684F80A1695F80B168E
:1030B00084F80B1695F80C1684F80C1695F80D1676
:1030C00084F80D1695F80E1684F80E1695F80F165E
:1030D00084F80F1695F8101684F8101695F8111646
:1030E00084F8111695F8121684F8121695F813162E
:1030F00084F8131695F8141684F8141695F8151616
:1031000084F8151695F8161684F8161695F81716FD
:1031100084F8171695F8181684F8181695F81916E5
:1031200084F8191695F81A1684F81A1695F81B16CD
:1031300084F81B1695F81C1684F81C1695F81D16B5
:1031400084F81D1695F81E1684F81E1695F81F169D
:1031500084F81F1695F8201684F8201695F8211685
:1031600084F8211695F8221684F8221695F823166D
:1031700084F8231695F8241684F8241695F8251655
:1031800084F8251695F8261684F8261695F827163D
:1031900084F8271695F8281684F8281695F8291625
:1031A00084F8291695F82A1684F82A1695F82B160D
:1031B00084F82B1695F82C1684F82C1695F82D16F5
:1031C00084F82D1695F82E1684F82E1695F82F16DD
:1031D00084F82F1695F8301684F8301695F83116C5
:1031E00084F8311695F8321684F8321695F83316AD
:1031F00084F8331695F8341684F8341695F8351695
:1032000084F8351695F8361684F8361695F837167C
:1032100084F8371695F8381684F8381695F8391664
:1032200084F8391695F83A1684F83A1695F83B164C
:1032300084F83B1695F83C1684F83C1695F83D1634
:1032400084F83D1695F83E1684F83E1695F83F161C
:1032500084F83F1695F8401684F8401695F8411604
:1032600084F8411695F8421684F8421695F84316EC
:1032700084F8431695F8441684F8441695F84516D4
:1032800084F8451695F8461684F8461695F84716BC
:1032900084F8471695F8481684F8481695F84916A4
:1032A00084F8491695F84A1684F84A1695F84B168C
:1032B00084F84B1695F84C1684F84C1695F84D1674
:1032C00084F84D1695F84E1684F84E1695F84F165C
:1032D00084F84F1695F8501684F8501695F8511644
:1032E00084F8511695F8521684F8521695F853162C
:1032F00084F8531695F8541684F8541695F8551614
:1033000084F8551695F8561684F8561695F85716FB
:1033100084F8571695F8581684F8581695F85916E3
:1033200084F8591695F85A1684F85A1695F85B16CB
:1033300084F85B1695F85C1684F85C1695F85D16B3
:1033400084F85D1695F85E1684F85E1695F85F169B
:1033500084F85F1695F8601684F8601695F8611683
:1033600084F8611695F8621684F8621695F863166B
:1033700084F8631695F8641684F8641695F8651653
:1033800084F8651695F8661684F8661695F867163B
:1033900084F8671695F8681684F8681695F8691623
:1033A00084F8691695F86A1684F86A1695F86B160B
:1033B00084F86B1695F86C1684F86C1695F86D16F3
:1033C00084F86D1695F86E1684F86E1695F86F16DB
:1033D00084F86F1695F8701684F8701695F87116C3
:1033E00084F8711695F8721684F8721695F87316AB
:1033F00084F8731695F8741684F8741695F8751693
:1034000084F8751695F8761684F8761695F877167A
:1034100084F8771695F8781684F8781695F8791662
:1034200084F8791695F87A1684F87A1695F87B164A
:1034300084F87B1695F87C1684F87C1695F87D1632
:1034400084F87D1695F87E1684F87E1695F87F161A
:1034500084F87F1695F8801684F8801695F8811602
:1034600084F8811695F8821684F8821695F88316EA
:1034700084F8831695F8841684F8841695F88516D2
:1034800084F8851695F8861684F8861695F88716BA
:1034900084F8871695F8881684F8881695F88916A2
:1034A00084F8891695F88A1684F88A1695F88B168A
:1034B00084F88B1695F88C1684F88C1695F88D1672
:1034C00084F88D1695F88E1684F88E1695F88F165A
:1034D00084F88F1695F8901684F8901695F8911642
:1034E00084F8911695F8921684F8921695F893162A
:1034F00084F8931695F8941684F8941695F8951612
:1035000084F8951695F8961684F8961695F89716F9
:1035100084F8971695F8981684F8981695F89916E1
:1035200084F8991695F89A1684F89A1695F89B16C9
:1035300084F89B1695F89C1684F89C1695F89D16B1
:1035400084F89D1695F89E1684F89E1695F89F1699
:1035500084F89F1695F8A01684F8A01695F8A11681
:1035600084F8A11695F8A21684F8A21695F8A31669
:1035700084F8A31695F8A41684F8A41695F8A51651
:1035800084F8A51695F8A61684F8A61695F8A71639
:1035900084F8A71695F8A81684F8A81695F8A91621
:1035A00084F8A91695F8AA1684F8AA1695F8AB1609
:1035B00084F8AB1695F8AC1684F8AC1695F8AD16F1
:1035C00084F8AD1695F8AE1684F8AE1695F8AF16D9
:1035D00084F8AF1695F8B01684F8B01695F8B116C1
:1035E00084F8B11695F8B21684F8B21695F8B316A9
:1035F00084F8B31695F8B41684F8B41695F8B51691
:1036000084F8B51695F8B61684F8B61695F8B71678
:1036100084F8B71695F8B81684F8B81695F8B91660
:1036200084F8B91695F8BA1684F8BA1695F8BB1648
:1036300084F8BB1695F8BC1684F8BC1695F8BD1630
:1036400084F8BD1695F8BE1684F8BE1695F8BF1618
:1036500084F8BF1695F8C01684F8C01695F8C11600
:1036600084F8C11695F8C21684F8C21695F8C316E8
:1036700084F8C31695F8C41684F8C41695F8C516D0
:1036800084F8C51695F8C61684F8C61695F8C716B8
:1036900084F8C71695F8C81684F8C81695F8C916A0
:1036A00084F8C91695F8CA1684F8CA1695F8CB1688
:1036B00084F8CB1695F8CC1684F8CC1695F8CD1670
:1036C00084F8CD1695F8CE1684F8CE1695F8CF1658
:1036D00084F8CF1695F8D01684F8D01695F8D11640
:1036E00084F8D11695F8D21684F8D21695F8D31628
:1036F00084F8D31695F8D41684F8D41695F8D51610
:1037000084F8D51695F8D61684F8D61695F8D716F7
:1037100084F8D71695F8D81684F8D81695F8D916DF
:1037200084F8D91695F8DA1684F8DA1695F8DB16C7
:1037300084F8DB1695F8DC1684F8DC1695F8DD16AF
:1037400084F8DD1695F8DE1684F8DE1695F8DF1697
:1037500084F8DF1695F8E01684F8E01695F8E1167F
:1037600084F8E11695F8E21684F8E21695F8E31667
:1037700084F8E31695F8E41684F8E41695F8E5164F
:1037800084F8E51695F8E61684F8E61695F8E71637
:1037900084F8E71695F8E81684F8E81695F8E9161F
:1037A00084F8E91695F8EA1684F8EA1695F8EB1607
:1037B00084F8EB1695F8EC1684F8EC1695F8ED16EF
:1037C00084F8ED1695F8EE1684F8EE1695F8EF16D7
:1037D00084F8EF1695F8F01684F8F01695F8F116BF
:1037E00084F8F11695F8F21684F8F21695F8F316A7
:1037F00084F8F31695F8F41684F8F41695F8F5168F
:1038000084F8F51695F8F61684F8F61695F8F71676
:1038100084F8F71695F8F81684F8F81695F8F9165E
:1038200084F8F91695F8FA1684F8FA1695F8FB1646
:1038300084F8FB1695F8FC1684F8FC1695F8FD162E
:1038400084F8FD1695F8FE1684F8FE1695F8FF1616
:1038500084F8FF1695F8001784F8001795F80117FB
:1038600084F8011795F8021784F8021795F80317E2
:1038700084F8031795F8041784F8041795F80517CA
:1038800084F8051795F8061784F8061795F80717B2
:1038900084F8071795F8081784F8081795F809179A
:1038A00084F8091795F80A1784F80A1795F80B1782
:1038B00084F80B1795F80C1784F80C1795F80D176A
:1038C00084F80D1795F80E1784F80E1795F80F1752
:1038D00084F80F1795F8101784F8101795F811173A
:1038E00084F8111795F8121784F8121795F8131722
:1038F00084F8131795F8141784F8141795F815170A
:1039000084F8151795F8161784F8161795F81717F1
:1039100084F8171795F8181784F8181795F81917D9
:1039200084F8191795F81A1784F81A1795F81B17C1
:1039300084F81B1795F81C1784F81C1795F81D17A9
:1039400084F81D1795F81E1784F81E1795F81F1791
:1039500084F81F1795F8201784F8201795F8211779
:1039600084F8211795F8221784F8221795F8231761
:1039700084F8231795F8241784F8241795F8251749
:1039800084F8251795F8261784F8261795F8271731
:1039900084F8271795F8281784F8281795F8291719
:1039A00084F8291795F82A1784F82A1795F82B1701
:1039B00084F82B1795F82C1784F82C1795F82D17E9
:1039C00084F82D1795F82E1784F82E1795F82F17D1
:1039D00084F82F1795F8301784F8301795F83117B9
:1039E00084F8311795F8321784F8321795F83317A1
:1039F00084F8331795F8341784F8341795F8351789
:103A000084F8351795F8361784F8361795F8371770
:103A100084F8371795F8381784F8381795F8391758
:103A200084F8391795F83A1784F83A1795F83B1740
:103A300084F83B1795F83C1784F83C1795F83D1728
:103A400084F83D1795F83E1784F83E1795F83F1710
:103A500084F83F1795F8401784F8401795F84117F8
:103A600084F8411795F8421784F8421795F84317E0
:103A700084F8431795F8441784F8441795F84517C8
:103A800084F8451795F8461784F8461795F84717B0
:103A900084F8471795F8481784F8481795F8491798
:103AA00084F8491795F84A1784F84A1795F84B1780
:103AB00084F84B1795F84C1784F84C1795F84D1768
:103AC00084F84D1795F84E1784F84E1795F84F1750
:103AD00084F84F1795F8501784F8501795F8511738
:103AE00084F8511795F8521784F8521795F8531720
:103AF00084F8531795F8541784F8541795F8551708
:103B000084F8551795F8561784F8561795F85717EF
:103B100084F8571795F8581784F8581795F85917D7
:103B200084F8591795F85A1784F85A1795F85B17BF
:103B300084F85B1795F85C1784F85C1795F85D17A7
:103B400084F85D1795F85E1784F85E1795F85F178F
:103B500084F85F1795F8601784F8601795F8611777
:103B600084F8611795F8621784F8621795F863175F
:103B700084F8631795F8641784F8641795F8651747
:103B800084F8651795F8661784F8661795F867172F
:103B900084F8671795F8681784F8681795F8691717
:103BA00084F8691795F86A1784F86A1795F86B17FF
:103BB00084F86B1795F86C1784F86C1795F86D17E7
:103BC00084F86D1795F86E1784F86E1795F86F17CF
:103BD00084F86F1795F8701784F8701795F87117B7
:103BE00084F8711795F8721784F8721795F873179F
:103BF00084F8731795F8741784F8741795F8751787
:103C000084F8751795F8761784F8761795F877176E
:103C100084F8771795F8781784F8781795F8791756
:103C200084F8791795F87A1784F87A1795F87B173E
:103C300084F87B1795F87C1784F87C1795F87D1726
:103C400084F87D1795F87E1784F87E1795F87F170E
:103C500084F87F1795F8801784F8801795F88117F6
:103C600084F8811795F8821784F8821795F88317DE
:103C700084F8831795F8841784F8841795F88517C6
:103C800084F8851795F8861784F8861795F88717AE
:103C900084F8871795F8881784F8881795F8891796
:103CA00084F8891795F88A1784F88A1795F88B177E
:103CB00084F88B1795F88C1784F88C1795F88D1766
:103CC00084F88D1795F88E1784F88E1795F88F174E
:103CD00084F88F1795F8901784F8901795F8911736
:103CE00084F8911795F8921784F8921795F893171E
:103CF00084F8931795F8941784F8941795F8951706
:103D000084F8951795F8961784F8961795F89717ED
:103D100084F8971795F8981784F8981795F89917D5
:103D200084F8991795F89A1784F89A1795F89B17BD
:103D300084F89B1795F89C1784F89C1795F89D17A5
:103D400084F89D1795F89E1784F89E1795F89F178D
:103D500084F89F1795F8A01784F8A01795F8A11775
:103D600084F8A11795F8A21784F8A21795F8A3175D
:103D700084F8A31795F8A41784F8A41795F8A51745
:103D800084F8A51795F8A61784F8A61795F8A7172D
:103D900084F8A71795F8A81784F8A81795F8A91715
:103DA00084F8A91795F8AA1784F8AA1795F8AB17FD
:103DB00084F8AB1795F8AC1784F8AC1795F8AD17E5
:103DC00084F8AD1795F8AE1784F8AE1795F8AF17CD
:103DD00084F8AF1795F8B01784F8B01795F8B117B5
:103DE00084F8B11795F8B21784F8B21795F8B3179D
:103DF00084F8B31795F8B41784F8B41795F8B51785
:103E000084F8B51795F8B61784F8B61795F8B7176C
:103E100084F8B71795F8B81784F8B81795F8B91754
:103E200084F8B91795F8BA1784F8BA1795F8BB173C
:103E300084F8BB1795F8BC1784F8BC1795F8BD1724
:103E400084F8BD1795F8BE1784F8BE1795F8BF170C
:103E500084F8BF1795F8C01784F8C01795F8C117F4
:103E600084F8C11795F8C21784F8C21795F8C317DC
:103E700084F8C31795F8C41784F8C41795F8C517C4
:103E800084F8C51795F8C61784F8C61795F8C717AC
:103E900084F8C71795F8C81784F8C81795F8C91794
:103EA00084F8C91795F8CA1784F8CA1795F8CB177C
:103EB00084F8CB1795F8CC1784F8CC1795F8CD1764
:103EC00084F8CD1795F8CE1784F8CE1795F8CF174C
:103ED00084F8CF1795F8D01784F8D01795F8D11734
:103EE00084F8D11795F8D21784F8D21795F8D3171C
:103EF00084F8D31795F8D41784F8D41795F8D51704
:103F000084F8D51795F8D61784F8D61795F8D717EB
:103F100084F8D71795F8D81784F8D81795F8D917D3
:103F200084F8D91795F8DA1784F8DA1795F8DB17BB
:103F300084F8DB1795F8DC1784F8DC1795F8DD17A3
:103F400084F8DD1795F8DE1784F8DE1795F8DF178B
:103F500084F8DF1795F8E01784F8E01795F8E11773
:103F600084F8E11795F8E21784F8E21795F8E3175B
:103F700084F8E31795F8E41784F8E41795F8E51743
:103F800084F8E51795F8E61784F8E61795F8E7172B
:103F900084F8E71795F8E81784F8E81795F8E91713
:103FA00084F8E91795F8EA1784F8EA1795F8EB17FB
:103FB00084F8EB1795F8EC1784F8EC1795F8ED17E3
:103FC00084F8ED1795F8EE1784F8EE1795F8EF17CB
:103FD00084F8EF1795F8F01784F8F01795F8F117B3
:103FE00084F8F11795F8F21784F8F21795F8F3179B
:103FF00084F8F31795F8F41784F8F41795F8F51783
:1040000084F8F51795F8F61784F8F61795F8F7176A
:1040100084F8F71795F8F81784F8F81795F8F91752
:1040200084F8F91795F8FA1784F8FA1795F8FB173A
:1040300084F8FB1795F8FC1784F8FC1795F8FD1722
:1040400084F8FD1795F8FE1784F8FE1795F8FF170A
:1040500084F8FF1795F8001884F8001895F80118EF
:1040600084F8011895F8021884F8021895F80318D6
:1040700084F8031895F8041884F8041895F80518BE
:1040800084F8051895F8061884F8061895F80718A6
:1040900084F8071895F8081884F8081895F809188E
:1040A00084F8091895F80A1884F80A1895F80B1876
:1040B00084F80B1895F80C1884F80C1895F80D185E
:1040C00084F80D1895F80E1884F80E1895F80F1846
:1040D00084F80F1895F8101884F8101895F811182E
:1040E00084F8111895F8121884F8121895F8131816
:1040F00084F8131895F8141884F8141895F81518FE
:1041000084F8151895F8161884F8161895F81718E5
:1041100084F8171895F8181884F8181895F81918CD
:1041200084F8191895F81A1884F81A1895F81B18B5
:1041300084F81B1895F81C1884F81C1895F81D189D
:1041400084F81D1895F81E1884F81E1895F81F1885
:1041500084F81F1895F8201884F8201895F821186D
:1041600084F8211895F8221884F8221895F8231855
:1041700084F8231895F8241884F8241895F825183D
:1041800084F8251895F8261884F8261895F8271825
:1041900084F8271895F8281884F8281895F829180D
:1041A00084F8291895F82A1884F82A1895F82B18F5
:1041B00084F82B1895F82C1884F82C1895F82D18DD
:1041C00084F82D1895F82E1884F82E1895F82F18C5
:1041D00084F82F1895F8301884F8301895F83118AD
:1041E00084F8311895F8321884F8321895F8331895
:1041F00084F8331895F8341884F8341895F835187D
:1042000084F8351895F8361884F8361895F8371864
:1042100084F8371895F8381884F8381895F839184C
:1042200084F8391895F83A1884F83A1895F83B1834
:1042300084F83B1895F83C1884F83C1895F83D181C
:1042400084F83D1895F83E1884F83E1895F83F1804
:1042500084F83F1895F8401884F8401895F84118EC
:1042600084F8411895F8421884F8421895F84318D4
:1042700084F8431895F8441884F8441895F84518BC
:1042800084F8451895F8461884F8461895F84718A4
:1042900084F8471895F8481884F8481895F849188C
:1042A00084F8491895F84A1884F84A1895F84B1874
:1042B00084F84B1895F84C1884F84C1895F84D185C
:1042C00084F84D1895F84E1884F84E1895F84F1844
:1042D00084F84F1895F8501884F8501895F851182C
:1042E00084F8511895F8521884F8521895F8531814
:1042F00084F8531895F8541884F8541895F85518FC
:1043000084F8551895F8561884F8561895F85718E3
:1043100084F8571895F8581884F8581895F85918CB
:1043200084F8591895F85A1884F85A1895F85B18B3
:1043300084F85B1895F85C1884F85C1895F85D189B
:1043400084F85D1895F85E1884F85E1895F85F1883
:1043500084F85F184FF4066041590151001D41591E
:104360000151001D41590151001D41590151A04801
:1043700001684FF4066001519D480068B0B19C4847
:104380000068C06C18B99A480068C4640EE0984888
:104390000068C66C02E040F66400865940F664008E
:1043A00080590028F7D140F664008451914886680E
:1043B000012703E040F66C0086597F1C307AB84232
:1043C00001D1002EF6D1277240F66C00065176B16D
:1043D000001F815901518451805910B9854884606A
:1043E0001DE040F668000059C0F86C4817E08148AD
:1043F000406858B17F484068C0F86C487D484168C3
:1044000040F6680001517B48446008E07948446008
:104410008460002140F66C000151001F0151754875
:104420000078401C73490870734801680091416826
:104430000191009800F066FA2046FBF7E2BE7CB5D9
:1044400005466D48006800906B4840680146019041
:10445000009800F016FA6748846802E040F66C00A5
:104460000459207AA84201D0002CF7D164B96248DF
:10447000006800906048406801460190009800F094
:1044800041FA4FF0FF307CBD40F66800005928B972
:1044900040F66C0000595749886006E040F66C0011
:1044A0000159001F0059C0F86C1840F66C00005903
:1044B00028B940F6680000594E49486006E040F6C9
:1044C00068000159001D0059C0F8681800BF204657
:1044D00000F04FF90028FAD147480068009046489C
:1044E000406801460190009800F00CFA0020CAE7ED
:1044F0007CB505464048006800903F48406801464A
:104500000190009800F0BDF93A48846802E040F656
:104510006C000459294604F1090002F070FC08B14E
:10452000002CF4D164B934480068009032484068E7
:1045300001460190009800F0E5F94FF0FF307CBD96
:104540002D48006800902C48406801460190009872
:1045500000F0D8F9207AFFF772FFF0E77CB5054646
:104560002548006800902448406801460190009862
:1045700000F087F91F48846802E040F66C00045997
:10458000207AA84201D0002CF7D11B480068009087
:104590001948406801460190009800F0B3F92046A0
:1045A0007CBD7CB505461448006800901248406800
:1045B00001460190009800F064F90E48846802E01A
:1045C00040F66C000459294604F1090002F017FC7A
:1045D00008B1002CF4D108480068009006484068F3
:1045E00001460190009800F08DF920467CBD000046
:1045F00034000020600000200000002030B502469A
:104600000B46D01C20F0030123F00304601A401C69
:10461000142802D24FF0FF3030BD8B480160A4F166
:10462000F0008A4D286028460068401A1038864DF0
:104630002D6828600020844D2D68A880824800687D
:10464000814D2D68A860814800687F4D2D68E86025
:104650000020E1E700B57E497E48FFF7CFFF00BDAF
:104660002DE9FC4106464FF000087B4800680090A9
:104670007948406801460190009800F002F9042E44
:1046800000DA0426F01C20F0030086B26E480468AD
:104690004CE0A088002847D1E068011B06F1240007
:1046A00081421FD326600120A08004F110008519EB
:1046B000E068E860AC60E560E8688560E868401B39
:1046C000103828600020A880634800680090624885
:1046D000406801460190009800F014F904F11000C0
:1046E000BDE8FC81E068011B06F1100081421BD38C
:1046F0005649E0680968884203D027464FF0010810
:1047000013E026600120A08050480068E060524815
:10471000006800905048406801460190009800F001
:10472000F1F804F11000DBE700BFE46847480068D7
:104730008442AED1B8F1000F0FD03E600120B880A6
:104740004548006800904448406801460190009840
:1047500000F0D8F807F11000C2E73F480068009069
:104760003D48406801460190009800F0CBF80020D9
:10477000B6E72DE9FC4106464FF0FF3736480068A2
:1047800000903548406801460190009800F079F8A3
:104790002D48046847E004F11000B04242D10027E0
:1047A000E0688088012817D1A0688088012813D18B
:1047B000A0680168084400F110050020A880A068E6
:1047C000A860E068E860A068C560E0688560E868A7
:1047D000401B1038286025E0A068808858B9D4E9CB
:1047E0000210C860D4E902018860D4E90210401ABE
:1047F00010380860A468E068808898B9A0680168EB
:10480000084400F110050020A880E068C068E86056
:10481000A068A860A868C560E8688560E868401B73
:1048200010382860E468094800688442B3D10A4817
:10483000006800900848406801460190009800F028
:1048400061F83846BDE8FC8110000020140000200B
:1048500000000120A01000200800002030B5044610
:104860000A46214613461BB90B4600254D6507E055
:10487000184600E0406D456D002DFBD141654D654A
:1048800030BD13B502F02DFE044601202F490870FB
:104890000098401E00900098002805DB002008705A
:1048A000204602F01AFE1CBD01212948006801F0D3
:1048B000FFF8274801990068FFF7D0FF002023493F
:1048C0000870204602F009FE012002F07CFE00BFC5
:1048D000E9E730B5044622460B4603B930BD9342A2
:1048E00001D1536D0CE0184600E0406D456D15B1E7
:1048F000456D9542F9D1456D15B1456D6D6D4565B7
:1049000000BFEBE773B502F0ECFD054601200F494F
:1049100008700098401C0090009800280FDD019856
:1049200068B1002408E00021019801F0C1F8019964
:104930000846FFF7CEFF641C0098A042F3DC00207D
:1049400002490870284602F0C8FD7CBD40000020E6
:1049500034000020704700BFFEE700BFFEE700BF45
:10496000FEE7704770471CB540F22551344801F00E
:104970006BFF002861D03248001D0088C4B231A00E
:10498000FFF70FFE3149086008460068002854D040
:104990000D2C00D100242D480068806C00902B481D
:1049A0000068C06C014601900098FFF76AFF274934
:1049B0000968B1F85810481CC11700EB91518912D1
:1049C000A0EB812221490968B1F85A108A420CD122
:1049D0001E480068806C00901C480068C06C01464E
:1049E00001900098FFF78EFF1CBD18490968B1F8C7
:1049F0005800411C8AB215490968A1F8582013498A
:104A0000096801F58C610C5410480068B0F8580032
:104A1000B0F5806F04DB00210C480068A0F8581046
:104A20000A480068806C009008480068C06C014625
:104A300001900098FFF766FFD6E700BFD4E70000BB
:104A400000380140555341525431000018000020F5
:104A500010B578A002F0C6FD10BD7CB5054628460D
:104A6000FFF79FFD0446BCB18048006800907F4876
:104A70004068014601900098FFF703FF7C480460FE
:104A80007A48006800907948406801460190009893
:104A9000FFF738FF00207CBD4FF0FF30FBE71CB56F
:104AA00002F048F9724908600846006810B94FF0F2
:104AB000FF301CBD6FA0FFF7D0FF10B16FF00100F9
:104AC000F7E76A480068009068484068014601902E
:104AD0000098FFF7D6FE66480068016A64480068DF
:104AE000884763480068416A6148006888475F48B2
:104AF000006800905D484068014601900098FFF70B
:104B000001FF0020D5E71CB5FFF7C9FFFFF7A0FFA5
:104B100000F07AFA60E000F016FC55480068006882
:104B20000090534800684068014601900098FFF7E4
:104B3000A8FE4F480068006C00904D480068406C2B
:104B4000014601900098FFF79CFE23E0484800686A
:104B5000B0F85E40601C82B245480068A0F85E2054
:104B6000434800686030015D444801F00AFE00BF20
:104B70004021424801F05CFE0128F9D13C48006820
:104B8000B0F85E00B0F5806F04DB002138480068A3
:104B9000A0F85E1036480068B0F85C103448006831
:104BA000B0F85E008142D1D131480068006C0090BD
:104BB0002F480068406C014601900098FFF7A2FE64
:104BC0002B4800680068009029480068406801464A
:104BD00001900098FFF796FE9DE77CB505462348B7
:104BE0000068009021484068014601900098FFF756
:104BF00048FE2846FFF7B2FC04466CB11C4804602E
:104C00001A480068009019484068014601900098D1
:104C1000FFF778FE00207CBD144800680090134820
:104C20004068014601900098FFF76CFE4FF0FF309E
:104C3000F1E700000A0A0D53636F7270696F207606
:104C4000312E300A0D4E69636520746F206D6565E5
:104C50007420796F752C6D616E210A0D4D616B6545
:104C600020697420656173792E0000001C0000200B
:104C700024000020555341525431000000380140B7
:104C800010B5002411E0FD48015DFDA002F0AAFC72
:104C9000641CFC480088401C00B2FA490880FA48AD
:104CA0000088401C00B2F8490880F8480088844217
:104CB000E9DB10BD70B50446002510E07F21F0A0AF
:104CC00002F090FC6D1CEF480088401E00B2ED49D8
:104CD0000880ED480088401E00B2EB490880A542DC
:104CE000ECDB70BD10B50AE042235B221B21E8A07B
:104CF00002F078FCE8480078401EE7490870E64872
:104D000000780028F0D1E048B0F90000DD49B1F9A1
:104D10000010884215DA0BE044235B221B21DCA043
:104D200002F060FCD7480088401E00B2D5490880D8
:104D3000D448B0F90000D449B1F900108842EBD151
:104D400014E00BE043235B221B21D1A002F04AFCBC
:104D5000CC480088401C00B2CA490880CA48B0F953
:104D60000000C849B1F900108842EBD110BD10B560
:104D7000FFF7B8FFC4490878FFF79CFFFFF780FFF3
:104D800010BD10B504461B2C0CD1C448007828B9BE
:104D9000C2480078401CC149087002E00020BF49A9
:104DA000087010BDBD48007801280BD15B2C05D1DF
:104DB000BA480078401CB949087002E00020B749A1
:104DC0000870EEE7B548007802286FD1412C0ED16B
:104DD000FF20B2490870B0480078401CAE49087006
:104DE00041235B221B21AAA002F0FCFB80E0422CA5
:104DF00018D1FF20A9490870A7480078002877D06B
:104E0000A5480078401EA449087042235B221B215C
:104E10009FA002F0E7FBA0480078002868D1FFF7C8
:104E200061FF65E0432C1AD1FF209C4908709A4825
:104E3000007838B99348B0F900009349B1F90010EF
:104E4000884255D043235B221B2191A002F0CAFB6C
:104E50008C480088401C00B28A49088048E0442CF5
:104E600018D1FF208D4908708B48007828B98A48EE
:104E7000007818BB8348008800B344235B221B21C1
:104E800083A002F0AFFB7F480088401E00B27D493E
:104E900008802DE0312C03D1FF208049087027E0E5
:104EA000322C04D1FF207D49087021E021E0332C11
:104EB00005D17A480078401C7849087018E0342CF5
:104EC00003D1FF207549087012E0352C05D17348D5
:104ED0000078801C714908700AE0362C05D16F48B3
:104EE0000078C01C6D49087002E000206B49087012
:104EF00057E76A480078032809D17E2C03D1FF20A8
:104F00006649087002E000206449087049E7634878
:104F10000078042832D17E2C2CD1FF205F49087004
:104F20005F4890F90000002827DB5D4890F90000F9
:104F30005C4991F9001088421FD0594890F900004F
:104F40000A300B2190FBF1F201FB120040B25449F0
:104F5000087055480A4692F9002000EB8211474834
:104F600001F05BFF454801F043FF48490880FFF727
:104F7000FEFE02E000204949087012E74748007829
:104F800005283FD17E2C39D1FF2044490870444880
:104F900090F90000002834DB414890F90000401CE3
:104FA0000B2190FBF1F201FB1200404991F9001036
:104FB00088421CD03A4890F90000401C0B2190FB1D
:104FC000F1F201FB120040B23549087036480A463A
:104FD00092F9002000EB8211284801F01EFF2748BB
:104FE00001F006FF29490880FFF7C1FE09E0FFF73D
:104FF00079FE25490878FFF75DFE02E00020274989
:105000000870CEE600BFCCE610B529A002F0EAFA9F
:1050100000201D490880204908701A49088010BDE9
:1050200070472DE9FC4125A002F0DCFA002601279B
:105030007BE006EB46002A4901EB8000846871E0C2
:10504000A18B606A451A00E06D1C28782328FBD0EC
:10505000606A451BA08BCDE90005E27F23463946F7
:1050600020A002F0BFFA94F8280030B1012849D0FE
:1050700002284BD0032851D14CE03FE02C03002004
:10508000256300002E0000203200002028000020B0
:105090002563256325630000300000202A000020DE
:1050A0002C0000202D0000206C0000202B00002090
:1050B0000A0D5468696E6B203E0000000A0D094E0F
:1050C0006F2E094944094E414D4509095354414346
:1050D0004B0955534544095354415455530000005E
:1050E0006C0700200A0D0925750925750925730926
:1050F00009257509256C750900000000F9A002F06A
:1051000071FA0CE0F9A002F06DFA08E0FAA002F0E2
:1051100069FA04E0FAA002F065FA00E000BF00BFFF
:10512000246D7F1C002C8BD1761C042E81DBBDE806
:10513000FC812DE9F04786B04FF0000AF248006884
:105140000490F1484068014605900498FFF799FBE8
:10515000EEA002F047FAF848046800BF02E02068B9
:105160008244E468F54800688442F8D1F248046853
:105170004FF0010935E0504601F0F1FF05460E46BB
:10518000206801F0ECFF07460022ED4B01F0F5FE30
:105190000022EC4BCDE9000101F0EFFE2A46334638
:1051A000CDE9020101F05BFFCDE90401CDE9020187
:1051B0002068009004F1100021680844431E04F1A7
:1051C00010024946E0A002F00DFAA08818B9E6A046
:1051D00002F008FA02E0E7A002F004FAE46809F13C
:1051E0000109D64800688442C5D1C74800680490C8
:1051F000C5484068014605900498FFF783FB06B058
:10520000BDE8F0877CB5DD4800680090DB48406869
:10521000014601900098FFF734FBD9A002F0E2F9B3
:105220000125DF4884681AE0227A04F1090329463F
:10523000DCA002F0D7F9607F18B9DEA002F0D2F945
:1052400005E0607F012802D1DCA002F0CBF9A17F4C
:10525000DCA002F0C7F940F66C0004596D1C002C6C
:10526000E2D1C64800680090C448406801460190F9
:105270000098FFF747FB7CBD10B50446D348008873
:10528000012802D1FFF7C0FE10BDD1A1D14801F025
:10529000B6FD10B9FFF7B6FF1AE0CFA1CD4801F077
:1052A000AEFD10B9FFF745FF12E0CDA1C94801F0EE
:1052B000A6FD10B9FFF7B5FE0AE0CBA1C54801F085
:1052C0009EFD10B9FFF7ACFE02E0C9A002F08AF91A
:1052D000FFF79AFE00BFD7E710B5CA4890F9000063
:1052E000401C01D1C7490870C749C84A92F900203B
:1052F00001EB8210B74901F090FDC44890F900001D
:10530000401C0B2190FBF1F201FB120040B2BF499F
:105310000870084690F90000BD490870BB4890F934
:105320000000B84991F9001088420BD1B74890F9B4
:105330000000401C0B2190FBF1F201FB120040B277
:10534000B049087010BDF0B591B0B248006801AA2C
:105350004FF48061036BAF4800689847074600250B
:105360007AE101A8405DB0B901A8415D9748028883
:105370000088401C954B1880964881541846008838
:1053800008B1FFF7A9FFFFF7ADFC0020FFF774FF9E
:1053900000208E49088001A9485DFFF7F2FC9E4875
:1053A0000078002818D101A8405D7F284CD19B4887
:1053B000007890B18548008800280DD09848008872
:1053C0000028FAD081480088401E80490880FFF7F5
:1053D00089FC0120FFF76EFC36E192480088002826
:1053E000FAD08F4800880028F6D08E48B0F90040E7
:1053F00005E07848015D601E764A1154641C7348CC
:1054000000888442F5DB8648B0F900008549B1F98F
:105410000010461A6D480088401E6C490880FFF74E
:10542000A6FC00240DE044235B221B21AFF2A03038
:1054300002F0D8F8641C7B480088401E00B279490D
:105440000880B442EFDBFFE001A8405D1F2824DDA7
:1054500001A8405D7F2820DA70480078F0B1FFF79E
:1054600041FC01A8415DAFF2E83002F0BBF86D48A5
:105470000088401C00B26B49088069480088401CC5
:1054800000B26749088001A8415D50480288008841
:10549000401C4E4B18804F488154D5E04B4804883F
:1054A00004E0601E4B49085C0855641E5D48B0F975
:1054B00000008442F5DC01A8405D4649594AB2F932
:1054C000002088545648B0F900005649B1F9001040
:1054D000461A3E480088401C3C490880FFF747FCBC
:1054E0000024AFE052554E4E494E4700535553509D
:1054F000454E44494E47000053544F5050454400D8
:105500004445414400000000080000200A0D094EF7
:105510006F2E0953544152540909454E4409095309
:10552000495A450950455243454E54414745095350
:105530005441545553000000100000201400002076
:105540000000F03F000059400A0D09257509307828
:105550002578093078257809257509252E316C665E
:105560002525090900000000417661696C61626CC3
:1055700065000000496E20557365000000000020A2
:105580000A0D094E6F2E094944094E414D4509093E
:105590004C494D495409535441545553000000009F
:1055A000600000200A0D0925640925640925730996
:1055B000090000004B65726E656C090055736572D9
:1055C0000900000025303278480000002800002043
:1055D000646576002C03002068656170000000009F
:1055E000746872656164000064656275670000003C
:1055F0000A0D4E6F207375636820636F6D6D616E69
:10560000642E00002D0000206C0000202B000020E4
:105610002C000020240000202A0000203000002060
:10562000320000202E00002044235B221B21AFF219
:10563000A05001F0D7FF641C0A480088401E00B249
:1056400008490880B442EFDB07480078FF2802D100
:105650000020054908706D1CBD42FFF682AE11B0F6
:10566000F0BD00002E0000202A00002008B5012116
:10567000882000F0FFFE0120ADF8000010208DF81A
:10568000030003208DF802006946804800F05CFCAE
:105690004FF4C070ADF8000010208DF80300032017
:1056A0008DF8020069467A4800F04EFC4FF4807194
:1056B000774800F0F4FC8021754800F0F0FC0121EF
:1056C000724800F0ECFC08BD10B5044614F0010F60
:1056D00004D04FF480716E4800F0E3FC04F0020047
:1056E000022803D180216A4800F0DBFC04F00400AA
:1056F000042803D10121654800F0D3FC10BD70B52A
:1057000005460E4600240BE0295D624801F039F899
:1057100000BF40215F4801F08BF80128F9D1641CDB
:10572000B442F1DB70BD88B0064635460024ABE0DC
:105730005948854208D835460024A94600BF5FEA8B
:105740000900A9F10109FAD10121504800F0A9FC92
:10575000204601F004FD074602F0BBFB82468B4663
:10576000601C01F0EBFC074602F0B3FB52465B46BF
:10577000CDE9000101F0FBFBCDE90401304601F069
:10578000EEFCCDE90201DDE9042301F0F6FBCDE9F1
:10579000060101F0F1FC0546601CC4B2A94600BF39
:1057A0005FEA0900A9F10109FAD10121374800F0A7
:1057B00076FC8021364800F074FC204601F0CFFCD6
:1057C000074602F086FB82468B46601C01F0B6FC61
:1057D000074602F07EFB52465B46CDE9000101F030
:1057E000C6FBCDE90401304601F0B9FCCDE9020168
:1057F000DDE9042301F0C1FBCDE9060101F0BCFCA9
:105800000546601CC4B2A94600BF5FEA0900A9F1C1
:105810000109FAD180211E4800F041FC4FF480714B
:105820001B4800F03EFC204601F099FC074602F0C0
:1058300050FBCDE90001601C01F080FC074602F03E
:1058400048FB8246DDE9002301F091FBCDE904012C
:10585000304601F084FCCDE90201DDE9042301F0CA
:105860008CFBCDE9060101F087FC0546601CC4B243
:10587000A94600BF5FEA0900A9F10109FAD14FF476
:105880008071034800F00BFC52E70000000C01405F
:10589000001C014000380140F049020008B5FE201C
:1058A0008DF80000FF208DF8010000208DF8020027
:1058B00001208DF80300684600F075FA08BD4FF02E
:1058C000E0214861704708B5FF208DF800000020F6
:1058D0008DF801008DF8020001208DF80300684664
:1058E00000F061FA4FF0E020006940F004004FF052
:1058F000E02108611F48FFF7E2FF08BD10B54FF433
:10590000407000F04BFA10BD10B5FFF7F7FFFFF73E
:10591000DAFFFFF7C3FF10BD4FF0E020006940F051
:1059200001004FF0E021086170474FF0E02000696E
:1059300020F001004FF0E021086170474FF0E020B7
:10594000006940F002004FF0E021086170474FF01D
:10595000E020006920F002004FF0E021086170476C
:1059600000204FF0E0218861704710B5024801F037
:10597000B1FD10BD80FC0A00A00C0020002011E049
:10598000002100EB4002E74B03F8221000EB40023D
:1059900003EB8202916000EB400203EB8202516054
:1059A000411CC8B20528EBDB704710B501EB410282
:1059B000DC4B13F8222062B901EB410203EB8202B7
:1059C000906001EB410203EB82025060002202650D
:1059D0000DE001EB4102D34B03EB820252681065EC
:1059E0000022026501EB410203EB8202506080F865
:1059F000281001EB4102CB4B13F82220521C01EB83
:105A00004103C84C04F8232010BD10B590F828209D
:105A100002EB4202C34B03EB82029268824218D12E
:105A200000F12800037803EB4303BE4C04EB83032F
:105A3000826A9A60027802EB4202234613F822201F
:105A4000A2F1010210F8283903EB430304F82320E4
:105A50002CE090F8282002EB4202B24B03EB8202CA
:105A6000916800E0096D0A6D824202D00A6D002A39
:105A7000F8D190F8282002EB4202AA4B03EB8202F5
:105A800052688A4200D110BD0A6D126D0A6590F805
:105A9000282002EB4202A34B13F82220521E90F85A
:105AA000283003EB43039F4C04F8232000BFEAE7B0
:105AB00030B504460D462046FFF7A7FF294620468D
:105AC000FFF773FF30BD10B5032197480068FFF75B
:105AD000EFFF012001F077FD10BD2DE9FC5F82464C
